{
  "address": "0xA1Bb64bCa8406774176e82C67D6eb44c78158c36",
  "abi": [
    {
      "inputs": [
        {
          "internalType": "string",
          "name": "_name",
          "type": "string"
        },
        {
          "internalType": "string",
          "name": "_symbol",
          "type": "string"
        },
        {
          "internalType": "address",
          "name": "_lzEndpoint",
          "type": "address"
        },
        {
          "internalType": "address",
          "name": "_delegate",
          "type": "address"
        }
      ],
      "stateMutability": "nonpayable",
      "type": "constructor"
    },
    {
      "inputs": [
        {
          "internalType": "address",
          "name": "sender",
          "type": "address"
        },
        {
          "internalType": "uint256",
          "name": "tokenId",
          "type": "uint256"
        },
        {
          "internalType": "address",
          "name": "owner",
          "type": "address"
        }
      ],
      "name": "ERC721IncorrectOwner",
      "type": "error"
    },
    {
      "inputs": [
        {
          "internalType": "address",
          "name": "operator",
          "type": "address"
        },
        {
          "internalType": "uint256",
          "name": "tokenId",
          "type": "uint256"
        }
      ],
      "name": "ERC721InsufficientApproval",
      "type": "error"
    },
    {
      "inputs": [
        {
          "internalType": "address",
          "name": "approver",
          "type": "address"
        }
      ],
      "name": "ERC721InvalidApprover",
      "type": "error"
    },
    {
      "inputs": [
        {
          "internalType": "address",
          "name": "operator",
          "type": "address"
        }
      ],
      "name": "ERC721InvalidOperator",
      "type": "error"
    },
    {
      "inputs": [
        {
          "internalType": "address",
          "name": "owner",
          "type": "address"
        }
      ],
      "name": "ERC721InvalidOwner",
      "type": "error"
    },
    {
      "inputs": [
        {
          "internalType": "address",
          "name": "receiver",
          "type": "address"
        }
      ],
      "name": "ERC721InvalidReceiver",
      "type": "error"
    },
    {
      "inputs": [
        {
          "internalType": "address",
          "name": "sender",
          "type": "address"
        }
      ],
      "name": "ERC721InvalidSender",
      "type": "error"
    },
    {
      "inputs": [
        {
          "internalType": "uint256",
          "name": "tokenId",
          "type": "uint256"
        }
      ],
      "name": "ERC721NonexistentToken",
      "type": "error"
    },
    {
      "inputs": [],
      "name": "InvalidDelegate",
      "type": "error"
    },
    {
      "inputs": [],
      "name": "InvalidEndpointCall",
      "type": "error"
    },
    {
      "inputs": [
        {
          "internalType": "bytes",
          "name": "options",
          "type": "bytes"
        }
      ],
      "name": "InvalidOptions",
      "type": "error"
    },
    {
      "inputs": [],
      "name": "InvalidReceiver",
      "type": "error"
    },
    {
      "inputs": [],
      "name": "LzTokenUnavailable",
      "type": "error"
    },
    {
      "inputs": [
        {
          "internalType": "uint32",
          "name": "eid",
          "type": "uint32"
        }
      ],
      "name": "NoPeer",
      "type": "error"
    },
    {
      "inputs": [
        {
          "internalType": "uint256",
          "name": "msgValue",
          "type": "uint256"
        }
      ],
      "name": "NotEnoughNative",
      "type": "error"
    },
    {
      "inputs": [
        {
          "internalType": "address",
          "name": "addr",
          "type": "address"
        }
      ],
      "name": "OnlyEndpoint",
      "type": "error"
    },
    {
      "inputs": [
        {
          "internalType": "address",
          "name": "caller",
          "type": "address"
        },
        {
          "internalType": "address",
          "name": "owner",
          "type": "address"
        }
      ],
      "name": "OnlyNFTOwner",
      "type": "error"
    },
    {
      "inputs": [
        {
          "internalType": "uint32",
          "name": "eid",
          "type": "uint32"
        },
        {
          "internalType": "bytes32",
          "name": "sender",
          "type": "bytes32"
        }
      ],
      "name": "OnlyPeer",
      "type": "error"
    },
    {
      "inputs": [],
      "name": "OnlySelf",
      "type": "error"
    },
    {
      "inputs": [
        {
          "internalType": "address",
          "name": "owner",
          "type": "address"
        }
      ],
      "name": "OwnableInvalidOwner",
      "type": "error"
    },
    {
      "inputs": [
        {
          "internalType": "address",
          "name": "account",
          "type": "address"
        }
      ],
      "name": "OwnableUnauthorizedAccount",
      "type": "error"
    },
    {
      "inputs": [
        {
          "internalType": "address",
          "name": "token",
          "type": "address"
        }
      ],
      "name": "SafeERC20FailedOperation",
      "type": "error"
    },
    {
      "inputs": [
        {
          "internalType": "bytes",
          "name": "result",
          "type": "bytes"
        }
      ],
      "name": "SimulationResult",
      "type": "error"
    },
    {
      "anonymous": false,
      "inputs": [
        {
          "indexed": true,
          "internalType": "address",
          "name": "owner",
          "type": "address"
        },
        {
          "indexed": true,
          "internalType": "address",
          "name": "approved",
          "type": "address"
        },
        {
          "indexed": true,
          "internalType": "uint256",
          "name": "tokenId",
          "type": "uint256"
        }
      ],
      "name": "Approval",
      "type": "event"
    },
    {
      "anonymous": false,
      "inputs": [
        {
          "indexed": true,
          "internalType": "address",
          "name": "owner",
          "type": "address"
        },
        {
          "indexed": true,
          "internalType": "address",
          "name": "operator",
          "type": "address"
        },
        {
          "indexed": false,
          "internalType": "bool",
          "name": "approved",
          "type": "bool"
        }
      ],
      "name": "ApprovalForAll",
      "type": "event"
    },
    {
      "anonymous": false,
      "inputs": [
        {
          "indexed": false,
          "internalType": "string",
          "name": "baseURI",
          "type": "string"
        }
      ],
      "name": "BaseURISet",
      "type": "event"
    },
    {
      "anonymous": false,
      "inputs": [
        {
          "components": [
            {
              "internalType": "uint32",
              "name": "eid",
              "type": "uint32"
            },
            {
              "internalType": "uint16",
              "name": "msgType",
              "type": "uint16"
            },
            {
              "internalType": "bytes",
              "name": "options",
              "type": "bytes"
            }
          ],
          "indexed": false,
          "internalType": "struct EnforcedOptionParam[]",
          "name": "_enforcedOptions",
          "type": "tuple[]"
        }
      ],
      "name": "EnforcedOptionSet",
      "type": "event"
    },
    {
      "anonymous": false,
      "inputs": [
        {
          "indexed": false,
          "internalType": "address",
          "name": "inspector",
          "type": "address"
        }
      ],
      "name": "MsgInspectorSet",
      "type": "event"
    },
    {
      "anonymous": false,
      "inputs": [
        {
          "indexed": true,
          "internalType": "bytes32",
          "name": "guid",
          "type": "bytes32"
        },
        {
          "indexed": false,
          "internalType": "uint32",
          "name": "srcEid",
          "type": "uint32"
        },
        {
          "indexed": true,
          "internalType": "address",
          "name": "toAddress",
          "type": "address"
        },
        {
          "indexed": false,
          "internalType": "uint256",
          "name": "tokenId",
          "type": "uint256"
        }
      ],
      "name": "ONFTReceived",
      "type": "event"
    },
    {
      "anonymous": false,
      "inputs": [
        {
          "indexed": true,
          "internalType": "bytes32",
          "name": "guid",
          "type": "bytes32"
        },
        {
          "indexed": false,
          "internalType": "uint32",
          "name": "dstEid",
          "type": "uint32"
        },
        {
          "indexed": true,
          "internalType": "address",
          "name": "fromAddress",
          "type": "address"
        },
        {
          "indexed": false,
          "internalType": "uint256",
          "name": "tokenId",
          "type": "uint256"
        }
      ],
      "name": "ONFTSent",
      "type": "event"
    },
    {
      "anonymous": false,
      "inputs": [
        {
          "indexed": true,
          "internalType": "address",
          "name": "previousOwner",
          "type": "address"
        },
        {
          "indexed": true,
          "internalType": "address",
          "name": "newOwner",
          "type": "address"
        }
      ],
      "name": "OwnershipTransferred",
      "type": "event"
    },
    {
      "anonymous": false,
      "inputs": [
        {
          "indexed": false,
          "internalType": "uint32",
          "name": "eid",
          "type": "uint32"
        },
        {
          "indexed": false,
          "internalType": "bytes32",
          "name": "peer",
          "type": "bytes32"
        }
      ],
      "name": "PeerSet",
      "type": "event"
    },
    {
      "anonymous": false,
      "inputs": [
        {
          "indexed": false,
          "internalType": "address",
          "name": "preCrimeAddress",
          "type": "address"
        }
      ],
      "name": "PreCrimeSet",
      "type": "event"
    },
    {
      "anonymous": false,
      "inputs": [
        {
          "indexed": true,
          "internalType": "address",
          "name": "from",
          "type": "address"
        },
        {
          "indexed": true,
          "internalType": "address",
          "name": "to",
          "type": "address"
        },
        {
          "indexed": true,
          "internalType": "uint256",
          "name": "tokenId",
          "type": "uint256"
        }
      ],
      "name": "Transfer",
      "type": "event"
    },
    {
      "inputs": [],
      "name": "SEND",
      "outputs": [
        {
          "internalType": "uint16",
          "name": "",
          "type": "uint16"
        }
      ],
      "stateMutability": "view",
      "type": "function"
    },
    {
      "inputs": [],
      "name": "SEND_AND_COMPOSE",
      "outputs": [
        {
          "internalType": "uint16",
          "name": "",
          "type": "uint16"
        }
      ],
      "stateMutability": "view",
      "type": "function"
    },
    {
      "inputs": [
        {
          "components": [
            {
              "internalType": "uint32",
              "name": "srcEid",
              "type": "uint32"
            },
            {
              "internalType": "bytes32",
              "name": "sender",
              "type": "bytes32"
            },
            {
              "internalType": "uint64",
              "name": "nonce",
              "type": "uint64"
            }
          ],
          "internalType": "struct Origin",
          "name": "origin",
          "type": "tuple"
        }
      ],
      "name": "allowInitializePath",
      "outputs": [
        {
          "internalType": "bool",
          "name": "",
          "type": "bool"
        }
      ],
      "stateMutability": "view",
      "type": "function"
    },
    {
      "inputs": [],
      "name": "approvalRequired",
      "outputs": [
        {
          "internalType": "bool",
          "name": "",
          "type": "bool"
        }
      ],
      "stateMutability": "pure",
      "type": "function"
    },
    {
      "inputs": [
        {
          "internalType": "address",
          "name": "to",
          "type": "address"
        },
        {
          "internalType": "uint256",
          "name": "tokenId",
          "type": "uint256"
        }
      ],
      "name": "approve",
      "outputs": [],
      "stateMutability": "nonpayable",
      "type": "function"
    },
    {
      "inputs": [
        {
          "internalType": "address",
          "name": "owner",
          "type": "address"
        }
      ],
      "name": "balanceOf",
      "outputs": [
        {
          "internalType": "uint256",
          "name": "",
          "type": "uint256"
        }
      ],
      "stateMutability": "view",
      "type": "function"
    },
    {
      "inputs": [
        {
          "internalType": "uint32",
          "name": "_eid",
          "type": "uint32"
        },
        {
          "internalType": "uint16",
          "name": "_msgType",
          "type": "uint16"
        },
        {
          "internalType": "bytes",
          "name": "_extraOptions",
          "type": "bytes"
        }
      ],
      "name": "combineOptions",
      "outputs": [
        {
          "internalType": "bytes",
          "name": "",
          "type": "bytes"
        }
      ],
      "stateMutability": "view",
      "type": "function"
    },
    {
      "inputs": [],
      "name": "endpoint",
      "outputs": [
        {
          "internalType": "contract ILayerZeroEndpointV2",
          "name": "",
          "type": "address"
        }
      ],
      "stateMutability": "view",
      "type": "function"
    },
    {
      "inputs": [
        {
          "internalType": "uint32",
          "name": "eid",
          "type": "uint32"
        },
        {
          "internalType": "uint16",
          "name": "msgType",
          "type": "uint16"
        }
      ],
      "name": "enforcedOptions",
      "outputs": [
        {
          "internalType": "bytes",
          "name": "enforcedOption",
          "type": "bytes"
        }
      ],
      "stateMutability": "view",
      "type": "function"
    },
    {
      "inputs": [
        {
          "internalType": "uint256",
          "name": "tokenId",
          "type": "uint256"
        }
      ],
      "name": "getApproved",
      "outputs": [
        {
          "internalType": "address",
          "name": "",
          "type": "address"
        }
      ],
      "stateMutability": "view",
      "type": "function"
    },
    {
      "inputs": [
        {
          "internalType": "address",
          "name": "owner",
          "type": "address"
        },
        {
          "internalType": "address",
          "name": "operator",
          "type": "address"
        }
      ],
      "name": "isApprovedForAll",
      "outputs": [
        {
          "internalType": "bool",
          "name": "",
          "type": "bool"
        }
      ],
      "stateMutability": "view",
      "type": "function"
    },
    {
      "inputs": [
        {
          "components": [
            {
              "internalType": "uint32",
              "name": "srcEid",
              "type": "uint32"
            },
            {
              "internalType": "bytes32",
              "name": "sender",
              "type": "bytes32"
            },
            {
              "internalType": "uint64",
              "name": "nonce",
              "type": "uint64"
            }
          ],
          "internalType": "struct Origin",
          "name": "",
          "type": "tuple"
        },
        {
          "internalType": "bytes",
          "name": "",
          "type": "bytes"
        },
        {
          "internalType": "address",
          "name": "_sender",
          "type": "address"
        }
      ],
      "name": "isComposeMsgSender",
      "outputs": [
        {
          "internalType": "bool",
          "name": "",
          "type": "bool"
        }
      ],
      "stateMutability": "view",
      "type": "function"
    },
    {
      "inputs": [
        {
          "internalType": "uint32",
          "name": "_eid",
          "type": "uint32"
        },
        {
          "internalType": "bytes32",
          "name": "_peer",
          "type": "bytes32"
        }
      ],
      "name": "isPeer",
      "outputs": [
        {
          "internalType": "bool",
          "name": "",
          "type": "bool"
        }
      ],
      "stateMutability": "view",
      "type": "function"
    },
    {
      "inputs": [
        {
          "components": [
            {
              "internalType": "uint32",
              "name": "srcEid",
              "type": "uint32"
            },
            {
              "internalType": "bytes32",
              "name": "sender",
              "type": "bytes32"
            },
            {
              "internalType": "uint64",
              "name": "nonce",
              "type": "uint64"
            }
          ],
          "internalType": "struct Origin",
          "name": "_origin",
          "type": "tuple"
        },
        {
          "internalType": "bytes32",
          "name": "_guid",
          "type": "bytes32"
        },
        {
          "internalType": "bytes",
          "name": "_message",
          "type": "bytes"
        },
        {
          "internalType": "address",
          "name": "_executor",
          "type": "address"
        },
        {
          "internalType": "bytes",
          "name": "_extraData",
          "type": "bytes"
        }
      ],
      "name": "lzReceive",
      "outputs": [],
      "stateMutability": "payable",
      "type": "function"
    },
    {
      "inputs": [
        {
          "components": [
            {
              "components": [
                {
                  "internalType": "uint32",
                  "name": "srcEid",
                  "type": "uint32"
                },
                {
                  "internalType": "bytes32",
                  "name": "sender",
                  "type": "bytes32"
                },
                {
                  "internalType": "uint64",
                  "name": "nonce",
                  "type": "uint64"
                }
              ],
              "internalType": "struct Origin",
              "name": "origin",
              "type": "tuple"
            },
            {
              "internalType": "uint32",
              "name": "dstEid",
              "type": "uint32"
            },
            {
              "internalType": "address",
              "name": "receiver",
              "type": "address"
            },
            {
              "internalType": "bytes32",
              "name": "guid",
              "type": "bytes32"
            },
            {
              "internalType": "uint256",
              "name": "value",
              "type": "uint256"
            },
            {
              "internalType": "address",
              "name": "executor",
              "type": "address"
            },
            {
              "internalType": "bytes",
              "name": "message",
              "type": "bytes"
            },
            {
              "internalType": "bytes",
              "name": "extraData",
              "type": "bytes"
            }
          ],
          "internalType": "struct InboundPacket[]",
          "name": "_packets",
          "type": "tuple[]"
        }
      ],
      "name": "lzReceiveAndRevert",
      "outputs": [],
      "stateMutability": "payable",
      "type": "function"
    },
    {
      "inputs": [
        {
          "components": [
            {
              "internalType": "uint32",
              "name": "srcEid",
              "type": "uint32"
            },
            {
              "internalType": "bytes32",
              "name": "sender",
              "type": "bytes32"
            },
            {
              "internalType": "uint64",
              "name": "nonce",
              "type": "uint64"
            }
          ],
          "internalType": "struct Origin",
          "name": "_origin",
          "type": "tuple"
        },
        {
          "internalType": "bytes32",
          "name": "_guid",
          "type": "bytes32"
        },
        {
          "internalType": "bytes",
          "name": "_message",
          "type": "bytes"
        },
        {
          "internalType": "address",
          "name": "_executor",
          "type": "address"
        },
        {
          "internalType": "bytes",
          "name": "_extraData",
          "type": "bytes"
        }
      ],
      "name": "lzReceiveSimulate",
      "outputs": [],
      "stateMutability": "payable",
      "type": "function"
    },
    {
      "inputs": [
        {
          "internalType": "address",
          "name": "to",
          "type": "address"
        },
        {
          "internalType": "uint256",
          "name": "tokenId",
          "type": "uint256"
        }
      ],
      "name": "mint",
      "outputs": [],
      "stateMutability": "nonpayable",
      "type": "function"
    },
    {
      "inputs": [],
      "name": "mintAdmin",
      "outputs": [
        {
          "internalType": "address",
          "name": "",
          "type": "address"
        }
      ],
      "stateMutability": "view",
      "type": "function"
    },
    {
      "inputs": [],
      "name": "msgInspector",
      "outputs": [
        {
          "internalType": "address",
          "name": "",
          "type": "address"
        }
      ],
      "stateMutability": "view",
      "type": "function"
    },
    {
      "inputs": [],
      "name": "name",
      "outputs": [
        {
          "internalType": "string",
          "name": "",
          "type": "string"
        }
      ],
      "stateMutability": "view",
      "type": "function"
    },
    {
      "inputs": [
        {
          "internalType": "uint32",
          "name": "",
          "type": "uint32"
        },
        {
          "internalType": "bytes32",
          "name": "",
          "type": "bytes32"
        }
      ],
      "name": "nextNonce",
      "outputs": [
        {
          "internalType": "uint64",
          "name": "nonce",
          "type": "uint64"
        }
      ],
      "stateMutability": "view",
      "type": "function"
    },
    {
      "inputs": [],
      "name": "oApp",
      "outputs": [
        {
          "internalType": "address",
          "name": "",
          "type": "address"
        }
      ],
      "stateMutability": "view",
      "type": "function"
    },
    {
      "inputs": [],
      "name": "oAppVersion",
      "outputs": [
        {
          "internalType": "uint64",
          "name": "senderVersion",
          "type": "uint64"
        },
        {
          "internalType": "uint64",
          "name": "receiverVersion",
          "type": "uint64"
        }
      ],
      "stateMutability": "pure",
      "type": "function"
    },
    {
      "inputs": [],
      "name": "onftVersion",
      "outputs": [
        {
          "internalType": "bytes4",
          "name": "interfaceId",
          "type": "bytes4"
        },
        {
          "internalType": "uint64",
          "name": "version",
          "type": "uint64"
        }
      ],
      "stateMutability": "pure",
      "type": "function"
    },
    {
      "inputs": [],
      "name": "owner",
      "outputs": [
        {
          "internalType": "address",
          "name": "",
          "type": "address"
        }
      ],
      "stateMutability": "view",
      "type": "function"
    },
    {
      "inputs": [
        {
          "internalType": "uint256",
          "name": "tokenId",
          "type": "uint256"
        }
      ],
      "name": "ownerOf",
      "outputs": [
        {
          "internalType": "address",
          "name": "",
          "type": "address"
        }
      ],
      "stateMutability": "view",
      "type": "function"
    },
    {
      "inputs": [
        {
          "internalType": "uint32",
          "name": "eid",
          "type": "uint32"
        }
      ],
      "name": "peers",
      "outputs": [
        {
          "internalType": "bytes32",
          "name": "peer",
          "type": "bytes32"
        }
      ],
      "stateMutability": "view",
      "type": "function"
    },
    {
      "inputs": [],
      "name": "preCrime",
      "outputs": [
        {
          "internalType": "address",
          "name": "",
          "type": "address"
        }
      ],
      "stateMutability": "view",
      "type": "function"
    },
    {
      "inputs": [
        {
          "components": [
            {
              "internalType": "uint32",
              "name": "dstEid",
              "type": "uint32"
            },
            {
              "internalType": "bytes32",
              "name": "to",
              "type": "bytes32"
            },
            {
              "internalType": "uint256",
              "name": "tokenId",
              "type": "uint256"
            },
            {
              "internalType": "bytes",
              "name": "extraOptions",
              "type": "bytes"
            },
            {
              "internalType": "bytes",
              "name": "composeMsg",
              "type": "bytes"
            },
            {
              "internalType": "bytes",
              "name": "onftCmd",
              "type": "bytes"
            }
          ],
          "internalType": "struct SendParam",
          "name": "_sendParam",
          "type": "tuple"
        },
        {
          "internalType": "bool",
          "name": "_payInLzToken",
          "type": "bool"
        }
      ],
      "name": "quoteSend",
      "outputs": [
        {
          "components": [
            {
              "internalType": "uint256",
              "name": "nativeFee",
              "type": "uint256"
            },
            {
              "internalType": "uint256",
              "name": "lzTokenFee",
              "type": "uint256"
            }
          ],
          "internalType": "struct MessagingFee",
          "name": "msgFee",
          "type": "tuple"
        }
      ],
      "stateMutability": "view",
      "type": "function"
    },
    {
      "inputs": [],
      "name": "renounceOwnership",
      "outputs": [],
      "stateMutability": "nonpayable",
      "type": "function"
    },
    {
      "inputs": [
        {
          "internalType": "address",
          "name": "from",
          "type": "address"
        },
        {
          "internalType": "address",
          "name": "to",
          "type": "address"
        },
        {
          "internalType": "uint256",
          "name": "tokenId",
          "type": "uint256"
        }
      ],
      "name": "safeTransferFrom",
      "outputs": [],
      "stateMutability": "nonpayable",
      "type": "function"
    },
    {
      "inputs": [
        {
          "internalType": "address",
          "name": "from",
          "type": "address"
        },
        {
          "internalType": "address",
          "name": "to",
          "type": "address"
        },
        {
          "internalType": "uint256",
          "name": "tokenId",
          "type": "uint256"
        },
        {
          "internalType": "bytes",
          "name": "data",
          "type": "bytes"
        }
      ],
      "name": "safeTransferFrom",
      "outputs": [],
      "stateMutability": "nonpayable",
      "type": "function"
    },
    {
      "inputs": [
        {
          "components": [
            {
              "internalType": "uint32",
              "name": "dstEid",
              "type": "uint32"
            },
            {
              "internalType": "bytes32",
              "name": "to",
              "type": "bytes32"
            },
            {
              "internalType": "uint256",
              "name": "tokenId",
              "type": "uint256"
            },
            {
              "internalType": "bytes",
              "name": "extraOptions",
              "type": "bytes"
            },
            {
              "internalType": "bytes",
              "name": "composeMsg",
              "type": "bytes"
            },
            {
              "internalType": "bytes",
              "name": "onftCmd",
              "type": "bytes"
            }
          ],
          "internalType": "struct SendParam",
          "name": "_sendParam",
          "type": "tuple"
        },
        {
          "components": [
            {
              "internalType": "uint256",
              "name": "nativeFee",
              "type": "uint256"
            },
            {
              "internalType": "uint256",
              "name": "lzTokenFee",
              "type": "uint256"
            }
          ],
          "internalType": "struct MessagingFee",
          "name": "_fee",
          "type": "tuple"
        },
        {
          "internalType": "address",
          "name": "_refundAddress",
          "type": "address"
        }
      ],
      "name": "send",
      "outputs": [
        {
          "components": [
            {
              "internalType": "bytes32",
              "name": "guid",
              "type": "bytes32"
            },
            {
              "internalType": "uint64",
              "name": "nonce",
              "type": "uint64"
            },
            {
              "components": [
                {
                  "internalType": "uint256",
                  "name": "nativeFee",
                  "type": "uint256"
                },
                {
                  "internalType": "uint256",
                  "name": "lzTokenFee",
                  "type": "uint256"
                }
              ],
              "internalType": "struct MessagingFee",
              "name": "fee",
              "type": "tuple"
            }
          ],
          "internalType": "struct MessagingReceipt",
          "name": "msgReceipt",
          "type": "tuple"
        }
      ],
      "stateMutability": "payable",
      "type": "function"
    },
    {
      "inputs": [
        {
          "internalType": "address",
          "name": "operator",
          "type": "address"
        },
        {
          "internalType": "bool",
          "name": "approved",
          "type": "bool"
        }
      ],
      "name": "setApprovalForAll",
      "outputs": [],
      "stateMutability": "nonpayable",
      "type": "function"
    },
    {
      "inputs": [
        {
          "internalType": "string",
          "name": "_baseTokenURI",
          "type": "string"
        }
      ],
      "name": "setBaseURI",
      "outputs": [],
      "stateMutability": "nonpayable",
      "type": "function"
    },
    {
      "inputs": [
        {
          "internalType": "address",
          "name": "_delegate",
          "type": "address"
        }
      ],
      "name": "setDelegate",
      "outputs": [],
      "stateMutability": "nonpayable",
      "type": "function"
    },
    {
      "inputs": [
        {
          "components": [
            {
              "internalType": "uint32",
              "name": "eid",
              "type": "uint32"
            },
            {
              "internalType": "uint16",
              "name": "msgType",
              "type": "uint16"
            },
            {
              "internalType": "bytes",
              "name": "options",
              "type": "bytes"
            }
          ],
          "internalType": "struct EnforcedOptionParam[]",
          "name": "_enforcedOptions",
          "type": "tuple[]"
        }
      ],
      "name": "setEnforcedOptions",
      "outputs": [],
      "stateMutability": "nonpayable",
      "type": "function"
    },
    {
      "inputs": [
        {
          "internalType": "address",
          "name": "_mintAdmin",
          "type": "address"
        }
      ],
      "name": "setMintAdmin",
      "outputs": [],
      "stateMutability": "nonpayable",
      "type": "function"
    },
    {
      "inputs": [
        {
          "internalType": "address",
          "name": "_msgInspector",
          "type": "address"
        }
      ],
      "name": "setMsgInspector",
      "outputs": [],
      "stateMutability": "nonpayable",
      "type": "function"
    },
    {
      "inputs": [
        {
          "internalType": "uint32",
          "name": "_eid",
          "type": "uint32"
        },
        {
          "internalType": "bytes32",
          "name": "_peer",
          "type": "bytes32"
        }
      ],
      "name": "setPeer",
      "outputs": [],
      "stateMutability": "nonpayable",
      "type": "function"
    },
    {
      "inputs": [
        {
          "internalType": "address",
          "name": "_preCrime",
          "type": "address"
        }
      ],
      "name": "setPreCrime",
      "outputs": [],
      "stateMutability": "nonpayable",
      "type": "function"
    },
    {
      "inputs": [
        {
          "internalType": "bytes4",
          "name": "interfaceId",
          "type": "bytes4"
        }
      ],
      "name": "supportsInterface",
      "outputs": [
        {
          "internalType": "bool",
          "name": "",
          "type": "bool"
        }
      ],
      "stateMutability": "view",
      "type": "function"
    },
    {
      "inputs": [],
      "name": "symbol",
      "outputs": [
        {
          "internalType": "string",
          "name": "",
          "type": "string"
        }
      ],
      "stateMutability": "view",
      "type": "function"
    },
    {
      "inputs": [],
      "name": "token",
      "outputs": [
        {
          "internalType": "address",
          "name": "",
          "type": "address"
        }
      ],
      "stateMutability": "view",
      "type": "function"
    },
    {
      "inputs": [
        {
          "internalType": "uint256",
          "name": "tokenId",
          "type": "uint256"
        }
      ],
      "name": "tokenURI",
      "outputs": [
        {
          "internalType": "string",
          "name": "",
          "type": "string"
        }
      ],
      "stateMutability": "view",
      "type": "function"
    },
    {
      "inputs": [
        {
          "internalType": "address",
          "name": "from",
          "type": "address"
        },
        {
          "internalType": "address",
          "name": "to",
          "type": "address"
        },
        {
          "internalType": "uint256",
          "name": "tokenId",
          "type": "uint256"
        }
      ],
      "name": "transferFrom",
      "outputs": [],
      "stateMutability": "nonpayable",
      "type": "function"
    },
    {
      "inputs": [
        {
          "internalType": "address",
          "name": "newOwner",
          "type": "address"
        }
      ],
      "name": "transferOwnership",
      "outputs": [],
      "stateMutability": "nonpayable",
      "type": "function"
    }
  ],
  "transactionHash": "0xd7efe5ff5d73b3c4b2faac32732b191a2ef8708ba815e757e0d78b2dace51477",
  "args": [
    "MyONFT721",
    "ONFT",
    "0x6EDCE65403992e310A62460808c4b910D972f10f",
    "0x10A14AFBBEd292B3c2F0493dc984A85662e36a7e"
  ],
  "numDeployments": 1,
  "solcInputHash": "77710177e7a0fc7325ee1c357cf7f9d4",
  "bytecode": "0x60a06040523480156200001157600080fd5b5060405162003b0c38038062003b0c833981016040819052620000349162000277565b838383838383838381818181806001600160a01b0381166200007057604051631e4fbdf760e01b81526000600482015260240160405180910390fd5b6200007b8162000142565b506001600160a01b038083166080528116620000aa57604051632d618d8160e21b815260040160405180910390fd5b60805160405163ca5eb5e160e01b81526001600160a01b0383811660048301529091169063ca5eb5e190602401600060405180830381600087803b158015620000f257600080fd5b505af115801562000107573d6000803e3d6000fd5b50505050505050505050816005908162000122919062000397565b50600662000131828262000397565b505050505050505050505062000463565b600080546001600160a01b038381166001600160a01b0319831681178455604051919092169283917f8be0079c531659141344cd1fd0a4f28419497f9722a3daafe3b4186f6b6457e09190a35050565b634e487b7160e01b600052604160045260246000fd5b600082601f830112620001ba57600080fd5b81516001600160401b0380821115620001d757620001d762000192565b604051601f8301601f19908116603f0116810190828211818310171562000202576200020262000192565b81604052838152602092508660208588010111156200022057600080fd5b600091505b8382101562000244578582018301518183018401529082019062000225565b6000602085830101528094505050505092915050565b80516001600160a01b03811681146200027257600080fd5b919050565b600080600080608085870312156200028e57600080fd5b84516001600160401b0380821115620002a657600080fd5b620002b488838901620001a8565b95506020870151915080821115620002cb57600080fd5b50620002da87828801620001a8565b935050620002eb604086016200025a565b9150620002fb606086016200025a565b905092959194509250565b600181811c908216806200031b57607f821691505b6020821081036200033c57634e487b7160e01b600052602260045260246000fd5b50919050565b601f82111562000392576000816000526020600020601f850160051c810160208610156200036d5750805b601f850160051c820191505b818110156200038e5782815560010162000379565b5050505b505050565b81516001600160401b03811115620003b357620003b362000192565b620003cb81620003c4845462000306565b8462000342565b602080601f831160018114620004035760008415620003ea5750858301515b600019600386901b1c1916600185901b1785556200038e565b600085815260208120601f198616915b82811015620004345788860151825594840194600190910190840162000413565b5085821015620004535787850151600019600388901b60f8161c191681555b5050505050600190811b01905550565b60805161365c620004b0600039600081816104f7015281816109b90152818161129e01528181611533015281816117d701528181611d9f015281816121800152612239015261365c6000f3fe6080604052600436106102885760003560e01c80637e01afc31161015a578063bb0b6a53116100c1578063d045a0dc1161007a578063d045a0dc14610808578063d42438851461081b578063e985e9c51461083b578063f2fde38b1461085b578063fc0c546a1461045b578063ff7bd03d1461087b57600080fd5b8063bb0b6a531461073b578063bc70b35414610768578063bd815db014610788578063c6414e7b1461079b578063c87b56dd146107c8578063ca5eb5e1146107e857600080fd5b8063a72f5dd811610113578063a72f5dd81461067e578063b21a33e4146106a6578063b731ea0a146106bb578063b88d4fde146106db578063b98bd070146106fb578063bab20a6b1461071b57600080fd5b80637e01afc3146105d757806382413eac146105f75780638da5cb5b1461061757806395d89b41146106355780639f68b9641461064a578063a22cb4651461065e57600080fd5b806340c10f19116101fe5780635e280f11116101b75780635e280f11146104e55780636352211e146105195780636fc1b31e1461053957806370a0823114610559578063715018a6146105875780637d25a05e1461059c57600080fd5b806340c10f191461041b57806342842e0e1461043b57806352ae28791461045b5780635535d4611461046e57806355f804b31461048e5780635a0dfe4d146104ae57600080fd5b806313137d651161025057806313137d651461035e57806317442b70146103715780631f5e13341461039357806321eb730b146103bb57806323b872dd146103db5780633400288b146103fb57600080fd5b806301ffc9a71461028d57806306fdde03146102c2578063081812fc146102e4578063095ea7b31461031c578063111ecdad1461033e575b600080fd5b34801561029957600080fd5b506102ad6102a83660046125a2565b61089b565b60405190151581526020015b60405180910390f35b3480156102ce57600080fd5b506102d76108ed565b6040516102b9919061260f565b3480156102f057600080fd5b506103046102ff366004612622565b61097f565b6040516001600160a01b0390911681526020016102b9565b34801561032857600080fd5b5061033c610337366004612650565b6109a8565b005b34801561034a57600080fd5b50600454610304906001600160a01b031681565b61033c61036c3660046126dc565b6109b7565b34801561037d57600080fd5b50604080516001815260026020820152016102b9565b34801561039f57600080fd5b506103a8600181565b60405161ffff90911681526020016102b9565b6103ce6103c936600461278d565b610a77565b6040516102b991906127fa565b3480156103e757600080fd5b5061033c6103f636600461283c565b610b30565b34801561040757600080fd5b5061033c610416366004612896565b610bbb565b34801561042757600080fd5b5061033c610436366004612650565b610bcd565b34801561044757600080fd5b5061033c61045636600461283c565b610c31565b34801561046757600080fd5b5030610304565b34801561047a57600080fd5b506102d76104893660046128c4565b610c51565b34801561049a57600080fd5b5061033c6104a93660046128f7565b610cf6565b3480156104ba57600080fd5b506102ad6104c9366004612896565b63ffffffff919091166000908152600160205260409020541490565b3480156104f157600080fd5b506103047f000000000000000000000000000000000000000000000000000000000000000081565b34801561052557600080fd5b50610304610534366004612622565b610d48565b34801561054557600080fd5b5061033c610554366004612938565b610d53565b34801561056557600080fd5b50610579610574366004612938565b610db0565b6040519081526020016102b9565b34801561059357600080fd5b5061033c610df8565b3480156105a857600080fd5b506105bf6105b7366004612896565b600092915050565b6040516001600160401b0390911681526020016102b9565b3480156105e357600080fd5b50600c54610304906001600160a01b031681565b34801561060357600080fd5b506102ad610612366004612955565b610e0c565b34801561062357600080fd5b506000546001600160a01b0316610304565b34801561064157600080fd5b506102d7610e21565b34801561065657600080fd5b5060006102ad565b34801561066a57600080fd5b5061033c6106793660046129c9565b610e30565b34801561068a57600080fd5b50604080516311f0c6d360e11b815260016020820152016102b9565b3480156106b257600080fd5b506103a8600281565b3480156106c757600080fd5b50600254610304906001600160a01b031681565b3480156106e757600080fd5b5061033c6106f6366004612b0f565b610e3b565b34801561070757600080fd5b5061033c610716366004612bbe565b610e53565b34801561072757600080fd5b5061033c610736366004612938565b610e6d565b34801561074757600080fd5b50610579610756366004612bf3565b60016020526000908152604090205481565b34801561077457600080fd5b506102d7610783366004612c0e565b610e97565b61033c610796366004612bbe565b61103f565b3480156107a757600080fd5b506107bb6107b6366004612c6e565b6111c9565b6040516102b99190612cb4565b3480156107d457600080fd5b506102d76107e3366004612622565b61120f565b3480156107f457600080fd5b5061033c610803366004612938565b611277565b61033c6108163660046126dc565b6112fd565b34801561082757600080fd5b5061033c610836366004612938565b61132c565b34801561084757600080fd5b506102ad610856366004612ccb565b611382565b34801561086757600080fd5b5061033c610876366004612938565b6113b0565b34801561088757600080fd5b506102ad610896366004612cf9565b6113ee565b60006001600160e01b031982166380ac58cd60e01b14806108cc57506001600160e01b03198216635b5e139f60e01b145b806108e757506301ffc9a760e01b6001600160e01b03198316145b92915050565b6060600580546108fc90612d15565b80601f016020809104026020016040519081016040528092919081815260200182805461092890612d15565b80156109755780601f1061094a57610100808354040283529160200191610975565b820191906000526020600020905b81548152906001019060200180831161095857829003601f168201915b5050505050905090565b600061098a82611424565b506000828152600960205260409020546001600160a01b03166108e7565b6109b382823361145d565b5050565b7f00000000000000000000000000000000000000000000000000000000000000006001600160a01b03163314610a07576040516391ac5e4f60e01b81523360048201526024015b60405180910390fd5b60208701803590610a2190610a1c908a612bf3565b61146a565b14610a5f57610a336020880188612bf3565b60405163309afaf360e21b815263ffffffff9091166004820152602088013560248201526044016109fe565b610a6e878787878787876114a6565b50505050505050565b610a7f612545565b610a9a336040860135610a956020880188612bf3565b611605565b600080610aa686611665565b9092509050610ad2610abb6020880188612bf3565b8383610acc368a90038a018a612d49565b886117a4565b805190935033907f986156872b2ee0022b9585231dbbfde457f87f8a16b6c45e1a81c54c4ad8351f610b0760208a018a612bf3565b6040805163ffffffff9092168252808b013560208301520160405180910390a350509392505050565b6001600160a01b038216610b5a57604051633250574960e11b8152600060048201526024016109fe565b6000610b678383336118af565b9050836001600160a01b0316816001600160a01b031614610bb5576040516364283d7b60e01b81526001600160a01b03808616600483015260248201849052821660448201526064016109fe565b50505050565b610bc36119a8565b6109b382826119d5565b600c546001600160a01b03163314610c275760405162461bcd60e51b815260206004820152601760248201527f4f6e6c79206d696e7441646d696e2063616e206d696e7400000000000000000060448201526064016109fe565b6109b38282611a23565b610c4c83838360405180602001604052806000815250610e3b565b505050565b600360209081526000928352604080842090915290825290208054610c7590612d15565b80601f0160208091040260200160405190810160405280929190818152602001828054610ca190612d15565b8015610cee5780601f10610cc357610100808354040283529160200191610cee565b820191906000526020600020905b815481529060010190602001808311610cd157829003601f168201915b505050505081565b610cfe6119a8565b600b610d0b828483612dc3565b507ff9c7803e94e0d3c02900d8a90893a6d5e90dd04d32a4cfe825520f82bf9f32f6600b604051610d3c9190612e82565b60405180910390a15050565b60006108e782611424565b610d5b6119a8565b600480546001600160a01b0319166001600160a01b0383169081179091556040519081527ff0be4f1e87349231d80c36b33f9e8639658eeaf474014dee15a3e6a4d4414197906020015b60405180910390a150565b60006001600160a01b038216610ddc576040516322718ad960e21b8152600060048201526024016109fe565b506001600160a01b031660009081526008602052604090205490565b610e006119a8565b610e0a6000611a3d565b565b6001600160a01b03811630145b949350505050565b6060600680546108fc90612d15565b6109b3338383611a8d565b610e46848484610b30565b610bb53385858585611b2c565b610e5b6119a8565b6109b3610e688284612f12565b611c56565b610e756119a8565b600c80546001600160a01b0319166001600160a01b0392909216919091179055565b63ffffffff8416600090815260036020908152604080832061ffff87168452909152812080546060929190610ecb90612d15565b80601f0160208091040260200160405190810160405280929190818152602001828054610ef790612d15565b8015610f445780601f10610f1957610100808354040283529160200191610f44565b820191906000526020600020905b815481529060010190602001808311610f2757829003601f168201915b505050505090508051600003610f945783838080601f016020809104026020016040519081016040528093929190818152602001838380828437600092019190915250929450610e199350505050565b6000839003610fa4579050610e19565b6002831061102257610feb84848080601f016020809104026020016040519081016040528093929190818152602001838380828437600092019190915250611d5d92505050565b80610ff98460028188612fe7565b60405160200161100b93929190613011565b604051602081830303815290604052915050610e19565b8383604051639a6d49cd60e01b81526004016109fe929190613062565b60005b81811015611148573683838381811061105d5761105d613076565b905060200281019061106f919061308c565b90506110a26110816020830183612bf3565b602083013563ffffffff919091166000908152600160205260409020541490565b6110ac5750611140565b3063d045a0dc60c08301358360a08101356110cb6101008301836130ad565b6110dc610100890160e08a01612938565b6110ea6101208a018a6130ad565b6040518963ffffffff1660e01b815260040161110c9796959493929190613108565b6000604051808303818588803b15801561112557600080fd5b505af1158015611139573d6000803e3d6000fd5b5050505050505b600101611042565b50336001600160a01b0316638e9e70996040518163ffffffff1660e01b8152600401600060405180830381865afa158015611187573d6000803e3d6000fd5b505050506040513d6000823e601f3d908101601f191682016040526111af919081019061318e565b604051638351eea760e01b81526004016109fe919061260f565b60408051808201909152600080825260208201526000806111e985611665565b90925090506112066111fe6020870187612bf3565b838387611d89565b95945050505050565b606061121a82611424565b506000611225611e61565b905060008151116112455760405180602001604052806000815250611270565b8061124f84611e70565b6040516020016112609291906131fb565b6040516020818303038152906040525b9392505050565b61127f6119a8565b60405163ca5eb5e160e01b81526001600160a01b0382811660048301527f0000000000000000000000000000000000000000000000000000000000000000169063ca5eb5e190602401600060405180830381600087803b1580156112e257600080fd5b505af11580156112f6573d6000803e3d6000fd5b5050505050565b33301461131d5760405163029a949d60e31b815260040160405180910390fd5b610a6e87878787878787610a5f565b6113346119a8565b600280546001600160a01b0319166001600160a01b0383169081179091556040519081527fd48d879cef83a1c0bdda516f27b13ddb1b3f8bbac1c9e1511bb2a659c242776090602001610da5565b6001600160a01b039182166000908152600a6020908152604080832093909416825291909152205460ff1690565b6113b86119a8565b6001600160a01b0381166113e257604051631e4fbdf760e01b8152600060048201526024016109fe565b6113eb81611a3d565b50565b60006020820180359060019083906114069086612bf3565b63ffffffff1681526020810191909152604001600020541492915050565b6000818152600760205260408120546001600160a01b0316806108e757604051637e27328960e01b8152600481018490526024016109fe565b610c4c8383836001611f02565b63ffffffff8116600090815260016020526040812054806108e75760405163f6ff4fb760e01b815263ffffffff841660048201526024016109fe565b60006114b86114b58787612008565b90565b905060006114c68787612020565b90506114df82826114da60208d018d612bf3565b612030565b60408611156115a35760006115196114fd60608c0160408d0161322a565b61150a60208d018d612bf3565b6115148b8b61203a565b612085565b604051633e5ac80960e11b81529091506001600160a01b037f00000000000000000000000000000000000000000000000000000000000000001690637cb590129061156f9086908d906000908790600401613247565b600060405180830381600087803b15801561158957600080fd5b505af115801561159d573d6000803e3d6000fd5b50505050505b6001600160a01b038216887f7883fa30ea56937810e36990b0bbb8d629d0cf59f68baf8431ff657cebe7eef56115dc60208d018d612bf3565b6040805163ffffffff9092168252602082018690520160405180910390a3505050505050505050565b61160e82610d48565b6001600160a01b0316836001600160a01b03161461165c578261163083610d48565b604051634342715b60e11b81526001600160a01b039283166004820152911660248201526044016109fe565b610c4c826120b4565b606080602083013561168a57604051631e4ec46b60e01b815260040160405180910390fd5b60006116e0602085013560408601356116a660808801886130ad565b8080601f0160208091040260200160405190810160405280939291908181526020018383808284376000920191909152506120ef92505050565b90935090506000816116f35760016116f6565b60025b90506117166117086020870187612bf3565b8261078360608901896130ad565b6004549093506001600160a01b0316801561179c5760405163043a78eb60e01b81526001600160a01b0382169063043a78eb906117599088908890600401613282565b602060405180830381865afa158015611776573d6000803e3d6000fd5b505050506040513d601f19601f8201168201806040525081019061179a91906132a7565b505b505050915091565b6117ac612545565b60006117bb8460000151612154565b6020850151909150156117d5576117d5846020015161217c565b7f00000000000000000000000000000000000000000000000000000000000000006001600160a01b0316632637a450826040518060a001604052808b63ffffffff1681526020016118258c61146a565b81526020018a815260200189815260200160008960200151111515815250866040518463ffffffff1660e01b81526004016118619291906132c4565b60806040518083038185885af115801561187f573d6000803e3d6000fd5b50505050506040513d601f19601f820116820180604052508101906118a4919061336d565b979650505050505050565b6000828152600760205260408120546001600160a01b03908116908316156118dc576118dc81848661225e565b6001600160a01b0381161561191a576118f9600085600080611f02565b6001600160a01b038116600090815260086020526040902080546000190190555b6001600160a01b03851615611949576001600160a01b0385166000908152600860205260409020805460010190555b60008481526007602052604080822080546001600160a01b0319166001600160a01b0389811691821790925591518793918516917fddf252ad1be2c89b69c2b068fc378daa952ba7f163c4a11628f55a4df523b3ef91a4949350505050565b6000546001600160a01b03163314610e0a5760405163118cdaa760e01b81523360048201526024016109fe565b63ffffffff8216600081815260016020908152604091829020849055815192835282018390527f238399d427b947898edb290f5ff0f9109849b1c3ba196a42e35f00c50a54b98b9101610d3c565b6109b38282604051806020016040528060008152506122c2565b600080546001600160a01b038381166001600160a01b0319831681178455604051919092169283917f8be0079c531659141344cd1fd0a4f28419497f9722a3daafe3b4186f6b6457e09190a35050565b6001600160a01b038216611abf57604051630b61174360e31b81526001600160a01b03831660048201526024016109fe565b6001600160a01b038381166000818152600a6020908152604080832094871680845294825291829020805460ff191686151590811790915591519182527f17307eab39ab6107e8899845ad3d59bd9653f200f220920489ca2b5937696c31910160405180910390a3505050565b6001600160a01b0383163b156112f657604051630a85bd0160e11b81526001600160a01b0384169063150b7a0290611b6e9088908890879087906004016133b7565b6020604051808303816000875af1925050508015611ba9575060408051601f3d908101601f19168201909252611ba6918101906133ea565b60015b611c12573d808015611bd7576040519150601f19603f3d011682016040523d82523d6000602084013e611bdc565b606091505b508051600003611c0a57604051633250574960e11b81526001600160a01b03851660048201526024016109fe565b805181602001fd5b6001600160e01b03198116630a85bd0160e11b14611c4e57604051633250574960e11b81526001600160a01b03851660048201526024016109fe565b505050505050565b60005b8151811015611d2d57611c88828281518110611c7757611c77613076565b602002602001015160400151611d5d565b818181518110611c9a57611c9a613076565b60200260200101516040015160036000848481518110611cbc57611cbc613076565b60200260200101516000015163ffffffff1663ffffffff1681526020019081526020016000206000848481518110611cf657611cf6613076565b60200260200101516020015161ffff1661ffff1681526020019081526020016000209081611d249190613407565b50600101611c59565b507fbe4864a8e820971c0247f5992e2da559595f7bf076a21cb5928d443d2a13b67481604051610da591906134c6565b600281015161ffff81166003146109b35781604051639a6d49cd60e01b81526004016109fe919061260f565b60408051808201909152600080825260208201527f00000000000000000000000000000000000000000000000000000000000000006001600160a01b031663ddc28c586040518060a001604052808863ffffffff168152602001611dec8961146a565b8152602001878152602001868152602001851515815250306040518363ffffffff1660e01b8152600401611e219291906132c4565b6040805180830381865afa158015611e3d573d6000803e3d6000fd5b505050506040513d601f19601f820116820180604052508101906112069190613551565b6060600b80546108fc90612d15565b60606000611e7d836122da565b60010190506000816001600160401b03811115611e9c57611e9c612a02565b6040519080825280601f01601f191660200182016040528015611ec6576020820181803683370190505b5090508181016020015b600019016f181899199a1a9b1b9c1cb0b131b232b360811b600a86061a8153600a8504945084611ed057509392505050565b8080611f1657506001600160a01b03821615155b15611fd8576000611f2684611424565b90506001600160a01b03831615801590611f525750826001600160a01b0316816001600160a01b031614155b8015611f655750611f638184611382565b155b15611f8e5760405163a9fbf51f60e01b81526001600160a01b03841660048201526024016109fe565b8115611fd65783856001600160a01b0316826001600160a01b03167f8c5be1e5ebec7d5bd14f71427d1e84f3dd0314c0f7b2291e5b200ac8c7c3b92560405160405180910390a45b505b5050600090815260096020526040902080546001600160a01b0319166001600160a01b0392909216919091179055565b60006120176020828486612fe7565b6112709161356d565b6000612017604060208486612fe7565b610c4c83836123b2565b60606120498260408186612fe7565b8080601f016020809104026020016040519081016040528093929190818152602001838380828437600092019190915250929695505050505050565b606083838360405160200161209c9392919061358b565b60405160208183030381529060405290509392505050565b60006120c360008360006118af565b90506001600160a01b0381166109b357604051637e27328960e01b8152600481018390526024016109fe565b805160609015158061212357604080516020810187905290810185905260600160405160208183030381529060405261214a565b8484338560405160200161213a94939291906135d5565b6040516020818303038152906040525b9150935093915050565b6000813414612178576040516304fb820960e51b81523460048201526024016109fe565b5090565b60007f00000000000000000000000000000000000000000000000000000000000000006001600160a01b031663e4fe1d946040518163ffffffff1660e01b8152600401602060405180830381865afa1580156121dc573d6000803e3d6000fd5b505050506040513d601f19601f820116820180604052508101906122009190613609565b90506001600160a01b038116612229576040516329b99a9560e11b815260040160405180910390fd5b6109b36001600160a01b038216337f000000000000000000000000000000000000000000000000000000000000000085612417565b612269838383612471565b610c4c576001600160a01b03831661229757604051637e27328960e01b8152600481018290526024016109fe565b60405163177e802f60e01b81526001600160a01b0383166004820152602481018290526044016109fe565b6122cc83836123b2565b610c4c336000858585611b2c565b60008072184f03e93ff9f4daa797ed6e38ed64bf6a1f0160401b83106123195772184f03e93ff9f4daa797ed6e38ed64bf6a1f0160401b830492506040015b6d04ee2d6d415b85acef81000000008310612345576d04ee2d6d415b85acef8100000000830492506020015b662386f26fc10000831061236357662386f26fc10000830492506010015b6305f5e100831061237b576305f5e100830492506008015b612710831061238f57612710830492506004015b606483106123a1576064830492506002015b600a83106108e75760010192915050565b6001600160a01b0382166123dc57604051633250574960e11b8152600060048201526024016109fe565b60006123ea838360006118af565b90506001600160a01b03811615610c4c576040516339e3563760e11b8152600060048201526024016109fe565b604080516001600160a01b0385811660248301528416604482015260648082018490528251808303909101815260849091019091526020810180516001600160e01b03166323b872dd60e01b179052610bb59085906124d4565b60006001600160a01b03831615801590610e195750826001600160a01b0316846001600160a01b031614806124ab57506124ab8484611382565b80610e195750506000908152600960205260409020546001600160a01b03908116911614919050565b600080602060008451602086016000885af1806124f7576040513d6000823e3d81fd5b50506000513d9150811561250f57806001141561251c565b6001600160a01b0384163b155b15610bb557604051635274afe760e01b81526001600160a01b03851660048201526024016109fe565b60405180606001604052806000801916815260200160006001600160401b03168152602001612587604051806040016040528060008152602001600081525090565b905290565b6001600160e01b0319811681146113eb57600080fd5b6000602082840312156125b457600080fd5b81356112708161258c565b60005b838110156125da5781810151838201526020016125c2565b50506000910152565b600081518084526125fb8160208601602086016125bf565b601f01601f19169290920160200192915050565b60208152600061127060208301846125e3565b60006020828403121561263457600080fd5b5035919050565b6001600160a01b03811681146113eb57600080fd5b6000806040838503121561266357600080fd5b823561266e8161263b565b946020939093013593505050565b60006060828403121561268e57600080fd5b50919050565b60008083601f8401126126a657600080fd5b5081356001600160401b038111156126bd57600080fd5b6020830191508360208285010111156126d557600080fd5b9250929050565b600080600080600080600060e0888a0312156126f757600080fd5b612701898961267c565b96506060880135955060808801356001600160401b038082111561272457600080fd5b6127308b838c01612694565b909750955060a08a013591506127458261263b565b90935060c0890135908082111561275b57600080fd5b506127688a828b01612694565b989b979a50959850939692959293505050565b600060c0828403121561268e57600080fd5b600080600083850360808112156127a357600080fd5b84356001600160401b038111156127b957600080fd5b6127c58782880161277b565b9450506040601f19820112156127da57600080fd5b5060208401915060608401356127ef8161263b565b809150509250925092565b6000608082019050825182526001600160401b0360208401511660208301526040830151612835604084018280518252602090810151910152565b5092915050565b60008060006060848603121561285157600080fd5b833561285c8161263b565b9250602084013561286c8161263b565b929592945050506040919091013590565b803563ffffffff8116811461289157600080fd5b919050565b600080604083850312156128a957600080fd5b61266e8361287d565b803561ffff8116811461289157600080fd5b600080604083850312156128d757600080fd5b6128e08361287d565b91506128ee602084016128b2565b90509250929050565b6000806020838503121561290a57600080fd5b82356001600160401b0381111561292057600080fd5b61292c85828601612694565b90969095509350505050565b60006020828403121561294a57600080fd5b81356112708161263b565b60008060008060a0858703121561296b57600080fd5b612975868661267c565b935060608501356001600160401b0381111561299057600080fd5b61299c87828801612694565b90945092505060808501356129b08161263b565b939692955090935050565b80151581146113eb57600080fd5b600080604083850312156129dc57600080fd5b82356129e78161263b565b915060208301356129f7816129bb565b809150509250929050565b634e487b7160e01b600052604160045260246000fd5b604080519081016001600160401b0381118282101715612a3a57612a3a612a02565b60405290565b604051606081016001600160401b0381118282101715612a3a57612a3a612a02565b604051601f8201601f191681016001600160401b0381118282101715612a8a57612a8a612a02565b604052919050565b60006001600160401b03821115612aab57612aab612a02565b50601f01601f191660200190565b600082601f830112612aca57600080fd5b8135612add612ad882612a92565b612a62565b818152846020838601011115612af257600080fd5b816020850160208301376000918101602001919091529392505050565b60008060008060808587031215612b2557600080fd5b8435612b308161263b565b93506020850135612b408161263b565b92506040850135915060608501356001600160401b03811115612b6257600080fd5b612b6e87828801612ab9565b91505092959194509250565b60008083601f840112612b8c57600080fd5b5081356001600160401b03811115612ba357600080fd5b6020830191508360208260051b85010111156126d557600080fd5b60008060208385031215612bd157600080fd5b82356001600160401b03811115612be757600080fd5b61292c85828601612b7a565b600060208284031215612c0557600080fd5b6112708261287d565b60008060008060608587031215612c2457600080fd5b612c2d8561287d565b9350612c3b602086016128b2565b925060408501356001600160401b03811115612c5657600080fd5b612c6287828801612694565b95989497509550505050565b60008060408385031215612c8157600080fd5b82356001600160401b03811115612c9757600080fd5b612ca38582860161277b565b92505060208301356129f7816129bb565b8151815260208083015190820152604081016108e7565b60008060408385031215612cde57600080fd5b8235612ce98161263b565b915060208301356129f78161263b565b600060608284031215612d0b57600080fd5b611270838361267c565b600181811c90821680612d2957607f821691505b60208210810361268e57634e487b7160e01b600052602260045260246000fd5b600060408284031215612d5b57600080fd5b612d63612a18565b82358152602083013560208201528091505092915050565b601f821115610c4c576000816000526020600020601f850160051c81016020861015612da45750805b601f850160051c820191505b81811015611c4e57828155600101612db0565b6001600160401b03831115612dda57612dda612a02565b612dee83612de88354612d15565b83612d7b565b6000601f841160018114612e225760008515612e0a5750838201355b600019600387901b1c1916600186901b1783556112f6565b600083815260209020601f19861690835b82811015612e535786850135825560209485019460019092019101612e33565b5086821015612e705760001960f88860031b161c19848701351681555b505060018560011b0183555050505050565b6000602080835260008454612e9681612d15565b8060208701526040600180841660008114612eb85760018114612ed457612f04565b60ff19851660408a0152604084151560051b8a01019550612f04565b89600052602060002060005b85811015612efb5781548b8201860152908301908801612ee0565b8a016040019650505b509398975050505050505050565b60006001600160401b0380841115612f2c57612f2c612a02565b8360051b6020612f3d818301612a62565b868152918501918181019036841115612f5557600080fd5b865b84811015612fdb57803586811115612f6f5760008081fd5b88016060368290031215612f835760008081fd5b612f8b612a40565b612f948261287d565b8152612fa18683016128b2565b8682015260408083013589811115612fb95760008081fd5b612fc536828601612ab9565b9183019190915250845250918301918301612f57565b50979650505050505050565b60008085851115612ff757600080fd5b8386111561300457600080fd5b5050820193919092039150565b600084516130238184602089016125bf565b8201838582376000930192835250909392505050565b81835281816020850137506000828201602090810191909152601f909101601f19169091010190565b602081526000610e19602083018486613039565b634e487b7160e01b600052603260045260246000fd5b6000823561013e198336030181126130a357600080fd5b9190910192915050565b6000808335601e198436030181126130c457600080fd5b8301803591506001600160401b038211156130de57600080fd5b6020019150368190038213156126d557600080fd5b6001600160401b03811681146113eb57600080fd5b63ffffffff6131168961287d565b1681526020880135602082015260006040890135613133816130f3565b6001600160401b03811660408401525087606083015260e0608083015261315e60e083018789613039565b6001600160a01b03861660a084015282810360c0840152613180818587613039565b9a9950505050505050505050565b6000602082840312156131a057600080fd5b81516001600160401b038111156131b657600080fd5b8201601f810184136131c757600080fd5b80516131d5612ad882612a92565b8181528560208385010111156131ea57600080fd5b6112068260208301602086016125bf565b6000835161320d8184602088016125bf565b8351908301906132218183602088016125bf565b01949350505050565b60006020828403121561323c57600080fd5b8135611270816130f3565b60018060a01b038516815283602082015261ffff8316604082015260806060820152600061327860808301846125e3565b9695505050505050565b60408152600061329560408301856125e3565b828103602084015261120681856125e3565b6000602082840312156132b957600080fd5b8151611270816129bb565b6040815263ffffffff8351166040820152602083015160608201526000604084015160a060808401526132fa60e08401826125e3565b90506060850151603f198483030160a085015261331782826125e3565b60809690960151151560c08501525050506001600160a01b039190911660209091015290565b60006040828403121561334f57600080fd5b613357612a18565b9050815181526020820151602082015292915050565b60006080828403121561337f57600080fd5b613387612a40565b825181526020830151613399816130f3565b60208201526133ab846040850161333d565b60408201529392505050565b6001600160a01b0385811682528416602082015260408101839052608060608201819052600090613278908301846125e3565b6000602082840312156133fc57600080fd5b81516112708161258c565b81516001600160401b0381111561342057613420612a02565b6134348161342e8454612d15565b84612d7b565b602080601f83116001811461346957600084156134515750858301515b600019600386901b1c1916600185901b178555611c4e565b600085815260208120601f198616915b8281101561349857888601518255948401946001909101908401613479565b50858210156134b65787850151600019600388901b60f8161c191681555b5050505050600190811b01905550565b600060208083018184528085518083526040925060408601915060408160051b87010184880160005b8381101561354357888303603f190185528151805163ffffffff1684528781015161ffff1688850152860151606087850181905261352f818601836125e3565b9689019694505050908601906001016134ef565b509098975050505050505050565b60006040828403121561356357600080fd5b611270838361333d565b803560208310156108e757600019602084900360031b1b1692915050565b60c084901b6001600160c01b031916815260e083901b6001600160e01b031916600882015281516000906135c681600c8501602087016125bf565b91909101600c01949350505050565b848152836020820152826040820152600082516135f98160608501602087016125bf565b9190910160600195945050505050565b60006020828403121561361b57600080fd5b81516112708161263b56fea2646970667358221220880ae276393479ceb5eda2a92b8fbc1936452c953cc9a4746502d2e35277da7564736f6c63430008160033",
  "devdoc": {
    "errors": {
      "ERC721IncorrectOwner(address,uint256,address)": [
        {
          "details": "Indicates an error related to the ownership over a particular token. Used in transfers.",
          "params": {
            "owner": "Address of the current owner of a token.",
            "sender": "Address whose tokens are being transferred.",
            "tokenId": "Identifier number of a token."
          }
        }
      ],
      "ERC721InsufficientApproval(address,uint256)": [
        {
          "details": "Indicates a failure with the `operator`s approval. Used in transfers.",
          "params": {
            "operator": "Address that may be allowed to operate on tokens without being their owner.",
            "tokenId": "Identifier number of a token."
          }
        }
      ],
      "ERC721InvalidApprover(address)": [
        {
          "details": "Indicates a failure with the `approver` of a token to be approved. Used in approvals.",
          "params": {
            "approver": "Address initiating an approval operation."
          }
        }
      ],
      "ERC721InvalidOperator(address)": [
        {
          "details": "Indicates a failure with the `operator` to be approved. Used in approvals.",
          "params": {
            "operator": "Address that may be allowed to operate on tokens without being their owner."
          }
        }
      ],
      "ERC721InvalidOwner(address)": [
        {
          "details": "Indicates that an address can't be an owner. For example, `address(0)` is a forbidden owner in ERC-20. Used in balance queries.",
          "params": {
            "owner": "Address of the current owner of a token."
          }
        }
      ],
      "ERC721InvalidReceiver(address)": [
        {
          "details": "Indicates a failure with the token `receiver`. Used in transfers.",
          "params": {
            "receiver": "Address to which tokens are being transferred."
          }
        }
      ],
      "ERC721InvalidSender(address)": [
        {
          "details": "Indicates a failure with the token `sender`. Used in transfers.",
          "params": {
            "sender": "Address whose tokens are being transferred."
          }
        }
      ],
      "ERC721NonexistentToken(uint256)": [
        {
          "details": "Indicates a `tokenId` whose `owner` is the zero address.",
          "params": {
            "tokenId": "Identifier number of a token."
          }
        }
      ],
      "OwnableInvalidOwner(address)": [
        {
          "details": "The owner is not a valid owner account. (eg. `address(0)`)"
        }
      ],
      "OwnableUnauthorizedAccount(address)": [
        {
          "details": "The caller account is not authorized to perform an operation."
        }
      ],
      "SafeERC20FailedOperation(address)": [
        {
          "details": "An operation with an ERC-20 token failed."
        }
      ]
    },
    "events": {
      "Approval(address,address,uint256)": {
        "details": "Emitted when `owner` enables `approved` to manage the `tokenId` token."
      },
      "ApprovalForAll(address,address,bool)": {
        "details": "Emitted when `owner` enables or disables (`approved`) `operator` to manage all of its assets."
      },
      "PreCrimeSet(address)": {
        "details": "Emitted when the preCrime contract address is set.",
        "params": {
          "preCrimeAddress": "The address of the preCrime contract."
        }
      },
      "Transfer(address,address,uint256)": {
        "details": "Emitted when `tokenId` token is transferred from `from` to `to`."
      }
    },
    "kind": "dev",
    "methods": {
      "allowInitializePath((uint32,bytes32,uint64))": {
        "details": "This indicates to the endpoint that the OApp has enabled msgs for this particular path to be received.This defaults to assuming if a peer has been set, its initialized. Can be overridden by the OApp if there is other logic to determine this.",
        "params": {
          "origin": "The origin information containing the source endpoint and sender address."
        },
        "returns": {
          "_0": "Whether the path has been initialized."
        }
      },
      "approvalRequired()": {
        "details": "In the case of ONFT where the contract IS the token, approval is NOT required.",
        "returns": {
          "_0": "requiresApproval Needs approval of the underlying token implementation."
        }
      },
      "approve(address,uint256)": {
        "details": "See {IERC721-approve}."
      },
      "balanceOf(address)": {
        "details": "See {IERC721-balanceOf}."
      },
      "combineOptions(uint32,uint16,bytes)": {
        "details": "If there is an enforced lzReceive option: - {gasLimit: 200k, msg.value: 1 ether} AND a caller supplies a lzReceive option: {gasLimit: 100k, msg.value: 0.5 ether} - The resulting options will be {gasLimit: 300k, msg.value: 1.5 ether} when the message is executed on the remote lzReceive() function.This presence of duplicated options is handled off-chain in the verifier/executor.",
        "params": {
          "_eid": "The endpoint ID.",
          "_extraOptions": "Additional options passed by the caller.",
          "_msgType": "The OAPP message type."
        },
        "returns": {
          "_0": "options The combination of caller specified options AND enforced options."
        }
      },
      "getApproved(uint256)": {
        "details": "See {IERC721-getApproved}."
      },
      "isApprovedForAll(address,address)": {
        "details": "See {IERC721-isApprovedForAll}."
      },
      "isComposeMsgSender((uint32,bytes32,uint64),bytes,address)": {
        "details": "_origin The origin information containing the source endpoint and sender address.  - srcEid: The source chain endpoint ID.  - sender: The sender address on the src chain.  - nonce: The nonce of the message._message The lzReceive payload.Applications can optionally choose to implement separate composeMsg senders that are NOT the bridging layer.The default sender IS the OAppReceiver implementer.",
        "params": {
          "_sender": "The sender address."
        },
        "returns": {
          "_0": "isSender Is a valid sender."
        }
      },
      "isPeer(uint32,bytes32)": {
        "details": "Check if the peer is considered 'trusted' by the OApp.Enables OAppPreCrimeSimulator to check whether a potential Inbound Packet is from a trusted source.",
        "params": {
          "_eid": "The endpoint ID to check.",
          "_peer": "The peer to check."
        },
        "returns": {
          "_0": "Whether the peer passed is considered 'trusted' by the OApp."
        }
      },
      "lzReceive((uint32,bytes32,uint64),bytes32,bytes,address,bytes)": {
        "details": "Entry point for receiving messages or packets from the endpoint.Entry point for receiving msg/packet from the LayerZero endpoint.",
        "params": {
          "_executor": "The address of the executor for the received message.",
          "_extraData": "Additional arbitrary data provided by the corresponding executor.",
          "_guid": "The unique identifier for the received LayerZero message.",
          "_message": "The payload of the received message.",
          "_origin": "The origin information containing the source endpoint and sender address.  - srcEid: The source chain endpoint ID.  - sender: The sender address on the src chain.  - nonce: The nonce of the message."
        }
      },
      "lzReceiveAndRevert(((uint32,bytes32,uint64),uint32,address,bytes32,uint256,address,bytes,bytes)[])": {
        "details": "Interface for pre-crime simulations. Always reverts at the end with the simulation results.WARNING: MUST revert at the end with the simulation results.Gives the preCrime implementation the ability to mock sending packets to the lzReceive function, WITHOUT actually executing them.",
        "params": {
          "_packets": "An array of InboundPacket objects representing received packets to be delivered."
        }
      },
      "lzReceiveSimulate((uint32,bytes32,uint64),bytes32,bytes,address,bytes)": {
        "details": "Is effectively an internal function because msg.sender must be address(this). Allows resetting the call stack for 'internal' calls.",
        "params": {
          "_executor": "The executor address for the packet.",
          "_extraData": "Additional data for the packet.",
          "_guid": "The unique identifier of the packet.",
          "_message": "The message payload of the packet.",
          "_origin": "The origin information containing the source endpoint and sender address.  - srcEid: The source chain endpoint ID.  - sender: The sender address on the src chain.  - nonce: The nonce of the message."
        }
      },
      "name()": {
        "details": "See {IERC721Metadata-name}."
      },
      "nextNonce(uint32,bytes32)": {
        "details": "_srcEid The source endpoint ID._sender The sender address.The path nonce starts from 1. If 0 is returned it means that there is NO nonce ordered enforcement.Is required by the off-chain executor to determine the OApp expects msg execution is ordered.This is also enforced by the OApp.By default this is NOT enabled. ie. nextNonce is hardcoded to return 0.",
        "returns": {
          "nonce": "The next nonce."
        }
      },
      "oApp()": {
        "details": "Retrieves the address of the OApp contract.The simulator contract is the base contract for the OApp by default.If the simulator is a separate contract, override this function.",
        "returns": {
          "_0": "The address of the OApp contract."
        }
      },
      "oAppVersion()": {
        "returns": {
          "receiverVersion": "The version of the OAppReceiver.sol implementation.",
          "senderVersion": "The version of the OAppSender.sol implementation."
        }
      },
      "onftVersion()": {
        "details": "version: Indicates a cross-chain compatible msg encoding with other ONFTs.If a new feature is added to the ONFT cross-chain msg encoding, the version will be incremented.ie. localONFT version(x,1) CAN send messages to remoteONFT version(x,1)",
        "returns": {
          "interfaceId": "The interface ID (0x23e18da6).",
          "version": "The version."
        }
      },
      "owner()": {
        "details": "Returns the address of the current owner."
      },
      "ownerOf(uint256)": {
        "details": "See {IERC721-ownerOf}."
      },
      "quoteSend((uint32,bytes32,uint256,bytes,bytes,bytes),bool)": {
        "details": "MessagingFee: LayerZero msg fee  - nativeFee: The native fee.  - lzTokenFee: The lzToken fee.",
        "params": {
          "_payInLzToken": "Flag indicating whether the caller is paying in the LZ token.",
          "_sendParam": "The parameters for the send() operation."
        },
        "returns": {
          "msgFee": "fee The calculated LayerZero messaging fee from the send() operation."
        }
      },
      "renounceOwnership()": {
        "details": "Leaves the contract without owner. It will not be possible to call `onlyOwner` functions. Can only be called by the current owner. NOTE: Renouncing ownership will leave the contract without an owner, thereby disabling any functionality that is only available to the owner."
      },
      "safeTransferFrom(address,address,uint256)": {
        "details": "See {IERC721-safeTransferFrom}."
      },
      "safeTransferFrom(address,address,uint256,bytes)": {
        "details": "See {IERC721-safeTransferFrom}."
      },
      "send((uint32,bytes32,uint256,bytes,bytes,bytes),(uint256,uint256),address)": {
        "details": "MessagingReceipt: LayerZero msg receipt  - guid: The unique identifier for the sent message.  - nonce: The nonce of the sent message.  - fee: The LayerZero fee incurred for the message.",
        "params": {
          "_fee": "The fee information supplied by the caller.      - nativeFee: The native fee.      - lzTokenFee: The lzToken fee.",
          "_refundAddress": "The address to receive any excess funds from fees etc. on the src.",
          "_sendParam": "The parameters for the send operation."
        },
        "returns": {
          "msgReceipt": "receipt The LayerZero messaging receipt from the send() operation."
        }
      },
      "setApprovalForAll(address,bool)": {
        "details": "See {IERC721-setApprovalForAll}."
      },
      "setDelegate(address)": {
        "details": "Only the owner/admin of the OApp can call this function.Provides the ability for a delegate to set configs, on behalf of the OApp, directly on the Endpoint contract.",
        "params": {
          "_delegate": "The address of the delegate to be set."
        }
      },
      "setEnforcedOptions((uint32,uint16,bytes)[])": {
        "details": "Sets the enforced options for specific endpoint and message type combinations.Only the owner/admin of the OApp can call this function.Provides a way for the OApp to enforce things like paying for PreCrime, AND/OR minimum dst lzReceive gas amounts etc.These enforced options can vary as the potential options/execution on the remote may differ as per the msgType. eg. Amount of lzReceive() gas necessary to deliver a lzCompose() message adds overhead you dont want to pay if you are only making a standard LayerZero message ie. lzReceive() WITHOUT sendCompose().",
        "params": {
          "_enforcedOptions": "An array of EnforcedOptionParam structures specifying enforced options."
        }
      },
      "setMsgInspector(address)": {
        "details": "This is an optional contract that can be used to inspect both 'message' and 'options'.Set it to address(0) to disable it, or set it to a contract address to enable it.",
        "params": {
          "_msgInspector": "The address of the message inspector."
        }
      },
      "setPeer(uint32,bytes32)": {
        "details": "Only the owner/admin of the OApp can call this function.Indicates that the peer is trusted to send LayerZero messages to this OApp.Set this to bytes32(0) to remove the peer address.Peer is a bytes32 to accommodate non-evm chains.",
        "params": {
          "_eid": "The endpoint ID.",
          "_peer": "The address of the peer to be associated with the corresponding endpoint."
        }
      },
      "setPreCrime(address)": {
        "details": "Sets the preCrime contract address.",
        "params": {
          "_preCrime": "The address of the preCrime contract."
        }
      },
      "supportsInterface(bytes4)": {
        "details": "See {IERC165-supportsInterface}."
      },
      "symbol()": {
        "details": "See {IERC721Metadata-symbol}."
      },
      "tokenURI(uint256)": {
        "details": "See {IERC721Metadata-tokenURI}."
      },
      "transferFrom(address,address,uint256)": {
        "details": "See {IERC721-transferFrom}."
      },
      "transferOwnership(address)": {
        "details": "Transfers ownership of the contract to a new account (`newOwner`). Can only be called by the current owner."
      }
    },
    "version": 1
  },
  "userdoc": {
    "kind": "user",
    "methods": {
      "allowInitializePath((uint32,bytes32,uint64))": {
        "notice": "Checks if the path initialization is allowed based on the provided origin."
      },
      "approvalRequired()": {
        "notice": "Indicates whether the ONFT721 contract requires approval of the 'token()' to send."
      },
      "combineOptions(uint32,uint16,bytes)": {
        "notice": "Combines options for a given endpoint and message type."
      },
      "endpoint()": {
        "notice": "Retrieves the LayerZero endpoint associated with the OApp."
      },
      "isComposeMsgSender((uint32,bytes32,uint64),bytes,address)": {
        "notice": "Indicates whether an address is an approved composeMsg sender to the Endpoint."
      },
      "nextNonce(uint32,bytes32)": {
        "notice": "Retrieves the next nonce for a given source endpoint and sender address."
      },
      "oAppVersion()": {
        "notice": "Retrieves the OApp version information."
      },
      "onftVersion()": {
        "notice": "Retrieves interfaceID and the version of the ONFT."
      },
      "peers(uint32)": {
        "notice": "Retrieves the peer (OApp) associated with a corresponding endpoint."
      },
      "quoteSend((uint32,bytes32,uint256,bytes,bytes,bytes),bool)": {
        "notice": "Provides a quote for the send() operation."
      },
      "send((uint32,bytes32,uint256,bytes,bytes,bytes),(uint256,uint256),address)": {
        "notice": "Executes the send() operation."
      },
      "setDelegate(address)": {
        "notice": "Sets the delegate address for the OApp."
      },
      "setMsgInspector(address)": {
        "notice": "Sets the message inspector address for the OFT."
      },
      "setPeer(uint32,bytes32)": {
        "notice": "Sets the peer address (OApp instance) for a corresponding endpoint."
      },
      "token()": {
        "notice": "Retrieves the address of the underlying ERC721 implementation (ie. this contract)."
      }
    },
    "version": 1
  },
  "storageLayout": {
    "storage": [
      {
        "astId": 3635,
        "contract": "contracts/MyONFT721.sol:MyONFT721",
        "label": "_owner",
        "offset": 0,
        "slot": "0",
        "type": "t_address"
      },
      {
        "astId": 1390,
        "contract": "contracts/MyONFT721.sol:MyONFT721",
        "label": "peers",
        "offset": 0,
        "slot": "1",
        "type": "t_mapping(t_uint32,t_bytes32)"
      },
      {
        "astId": 2166,
        "contract": "contracts/MyONFT721.sol:MyONFT721",
        "label": "preCrime",
        "offset": 0,
        "slot": "2",
        "type": "t_address"
      },
      {
        "astId": 2006,
        "contract": "contracts/MyONFT721.sol:MyONFT721",
        "label": "enforcedOptions",
        "offset": 0,
        "slot": "3",
        "type": "t_mapping(t_uint32,t_mapping(t_uint16,t_bytes_storage))"
      },
      {
        "astId": 3030,
        "contract": "contracts/MyONFT721.sol:MyONFT721",
        "label": "msgInspector",
        "offset": 0,
        "slot": "4",
        "type": "t_address"
      },
      {
        "astId": 4521,
        "contract": "contracts/MyONFT721.sol:MyONFT721",
        "label": "_name",
        "offset": 0,
        "slot": "5",
        "type": "t_string_storage"
      },
      {
        "astId": 4523,
        "contract": "contracts/MyONFT721.sol:MyONFT721",
        "label": "_symbol",
        "offset": 0,
        "slot": "6",
        "type": "t_string_storage"
      },
      {
        "astId": 4527,
        "contract": "contracts/MyONFT721.sol:MyONFT721",
        "label": "_owners",
        "offset": 0,
        "slot": "7",
        "type": "t_mapping(t_uint256,t_address)"
      },
      {
        "astId": 4531,
        "contract": "contracts/MyONFT721.sol:MyONFT721",
        "label": "_balances",
        "offset": 0,
        "slot": "8",
        "type": "t_mapping(t_address,t_uint256)"
      },
      {
        "astId": 4535,
        "contract": "contracts/MyONFT721.sol:MyONFT721",
        "label": "_tokenApprovals",
        "offset": 0,
        "slot": "9",
        "type": "t_mapping(t_uint256,t_address)"
      },
      {
        "astId": 4541,
        "contract": "contracts/MyONFT721.sol:MyONFT721",
        "label": "_operatorApprovals",
        "offset": 0,
        "slot": "10",
        "type": "t_mapping(t_address,t_mapping(t_address,t_bool))"
      },
      {
        "astId": 2766,
        "contract": "contracts/MyONFT721.sol:MyONFT721",
        "label": "baseTokenURI",
        "offset": 0,
        "slot": "11",
        "type": "t_string_storage"
      },
      {
        "astId": 2768,
        "contract": "contracts/MyONFT721.sol:MyONFT721",
        "label": "mintAdmin",
        "offset": 0,
        "slot": "12",
        "type": "t_address"
      }
    ],
    "types": {
      "t_address": {
        "encoding": "inplace",
        "label": "address",
        "numberOfBytes": "20"
      },
      "t_bool": {
        "encoding": "inplace",
        "label": "bool",
        "numberOfBytes": "1"
      },
      "t_bytes32": {
        "encoding": "inplace",
        "label": "bytes32",
        "numberOfBytes": "32"
      },
      "t_bytes_storage": {
        "encoding": "bytes",
        "label": "bytes",
        "numberOfBytes": "32"
      },
      "t_mapping(t_address,t_bool)": {
        "encoding": "mapping",
        "key": "t_address",
        "label": "mapping(address => bool)",
        "numberOfBytes": "32",
        "value": "t_bool"
      },
      "t_mapping(t_address,t_mapping(t_address,t_bool))": {
        "encoding": "mapping",
        "key": "t_address",
        "label": "mapping(address => mapping(address => bool))",
        "numberOfBytes": "32",
        "value": "t_mapping(t_address,t_bool)"
      },
      "t_mapping(t_address,t_uint256)": {
        "encoding": "mapping",
        "key": "t_address",
        "label": "mapping(address => uint256)",
        "numberOfBytes": "32",
        "value": "t_uint256"
      },
      "t_mapping(t_uint16,t_bytes_storage)": {
        "encoding": "mapping",
        "key": "t_uint16",
        "label": "mapping(uint16 => bytes)",
        "numberOfBytes": "32",
        "value": "t_bytes_storage"
      },
      "t_mapping(t_uint256,t_address)": {
        "encoding": "mapping",
        "key": "t_uint256",
        "label": "mapping(uint256 => address)",
        "numberOfBytes": "32",
        "value": "t_address"
      },
      "t_mapping(t_uint32,t_bytes32)": {
        "encoding": "mapping",
        "key": "t_uint32",
        "label": "mapping(uint32 => bytes32)",
        "numberOfBytes": "32",
        "value": "t_bytes32"
      },
      "t_mapping(t_uint32,t_mapping(t_uint16,t_bytes_storage))": {
        "encoding": "mapping",
        "key": "t_uint32",
        "label": "mapping(uint32 => mapping(uint16 => bytes))",
        "numberOfBytes": "32",
        "value": "t_mapping(t_uint16,t_bytes_storage)"
      },
      "t_string_storage": {
        "encoding": "bytes",
        "label": "string",
        "numberOfBytes": "32"
      },
      "t_uint16": {
        "encoding": "inplace",
        "label": "uint16",
        "numberOfBytes": "2"
      },
      "t_uint256": {
        "encoding": "inplace",
        "label": "uint256",
        "numberOfBytes": "32"
      },
      "t_uint32": {
        "encoding": "inplace",
        "label": "uint32",
        "numberOfBytes": "4"
      }
    }
  }
}